:020000040800F2
:10000000F80A002045010008733D00089724000805
:10001000713D0008970300084D42000800000000F1
:10002000000000000000000000000000953D0008F6
:100030009903000800000000D1010008993D000864
:100040005F0100085F0100085F0100085F01000810
:100050005F0100085F0100089B0300085F010008C2
:100060005F0100085F0100085F0100085F010008F0
:100070005F0100085F0100085F0100085F010008E0
:100080005F0100085F0100085F0100085F010008D0
:100090005F0100085F0100085F0100085F010008C0
:1000A0005F0100085F0100085F0100085F010008B0
:1000B0005F0100085F0100085F0100085F010008A0
:1000C0005F0100085F0100085F0100085F01000890
:1000D0005F010008414200085F0100085F0100085D
:1000E0005F0100085F0100085F0100085F01000870
:1000F0005F0100085F0100085F0100085F01000860
:100100005F0100085F0100085F0100085F0100084F
:100110005F0100085F0100085F0100085F0100083F
:100120005F0100085F0100085F0100085F0100082F
:10013000DFF80CD000F0F2F8004800470D47000847
:10014000F80A00200648804706480047FEE7FEE719
:10015000FEE7FEE7FEE7FEE7FEE7FEE7FEE7FEE777
:10016000253E00083101000872B62C482C4902686F
:1001700041EA020101602B484FF0010101602A4869
:100180004168016001688A884FF0100342EA030267
:100190008A80D1F800C00CF1240CBCE8FF008CF37D
:1001A00009884FF0020C8CF31488AE4662B63047D3
:1001B000EFF3108072B67047EFF3108062B67047AD
:1001C00080F31088704719484FF0805101607047E4
:1001D000EFF3108C72B6164A126822B12DE9005066
:1001E0009047BDE80050EFF3098020E9F01F0E4D65
:1001F0004FF010082E683060B78827EA0807B780EC
:1002000068682860878847EA080787800168B1E83E
:10021000F01F81F309888CF31088704720ED00E00F
:100220000000FFFF440000204800002004ED00E033
:100230002C0000202DE9F05F0546002092469B46E9
:1002400088460646814640241BE0284641464746EC
:10025000224600F020F853465A46C01A914110D366
:1002600011461846224600F04AF82D1A67EB01089D
:100270004F4622460120002100F041F817EB00090B
:100280004E41201EA4F10104DFDC484631462A46D7
:100290004346BDE8F09F202A04DB203A21FA02F011
:1002A0000021704721FA02F3D040C2F120029140B0
:1002B00008431946704740EA01039B0703D009E051
:1002C00008C9121F08C0042AFAD203E011F8013B42
:1002D00000F8013B521EF9D27047D2B201E000F89B
:1002E000012B491EFBD270470022F6E710B51346DA
:1002F0000A4604461946FFF7F0FF204610BD202AA3
:1003000004DB203A00FA02F1002070479140C2F16C
:10031000200320FA03F3194390407047064C074D21
:1003200006E0E06840F0010394E8070098471034C5
:10033000AC42F6D3FFF700FF645D0008845D00085F
:1003400070B58C1810F8015B15F0070301D110F897
:10035000013B2A1106D110F8012B03E010F8016BC4
:1003600001F8016B5B1EF9D12B0705D40023521E47
:100370000DD401F8013BFAE710F8013BCB1A921CAF
:1003800003E013F8015B01F8015B521EF9D5A142AD
:10039000D8D3002070BDFEE77047012001F0C0BA3D
:1003A00010B54FF480711C4802F094FB08B11BA0FB
:1003B00021E020A003F04CFF0421174802F060FB6D
:1003C000040017D020A003F043FF4FF44F7122A088
:1003D000216003F03DFF21460F4802F067FB70B13A
:1003E00021A003F035FF0121092002F005FA20B118
:1003F00022A000E028A003F02BFF012010BD2CA0BC
:1004000003F026FF0021092002F0F6F910B11BA02D
:1004100003F01EFF002010BD680300206D656D70A5
:100420006F6F6C20696E6974206661696C65642108
:10043000200D0A006D656D706F6F6C20696E6974B8
:10044000206F6B21200D0A006D656D20616C6C6F53
:1004500063206F6B200D0A002A705F6E756D203D62
:10046000202564200D0A00006D656D2066726565AB
:10047000206661696C656421200D0A005365742053
:10048000496E73706563742053746174757320458D
:100490007272200D0A0000006D656D20616C6C6F3A
:1004A00063206661696C656421200D0A000000000C
:1004B0006D656D2066726565206F6B210D0A000009
:1004C00010B501210FA003F0C3FE64230422012113
:1004D000154802F045F8014601280DD013A003F09D
:1004E000B7FE0121012002F087F9002809D0BDE8FC
:1004F000104018A003F0ACBE1DA003F0A9FE00211F
:10050000F0E710BD4578616D706C655F4576656E8E
:10051000742077616974206576656E742030782563
:1005200078202E200D0A0000680400204578616DB7
:10053000706C655F4576656E742C726561642065CC
:1005400076656E742074696D656F75742E200D0A62
:100550000000000053657420496E73706563742059
:10056000537461747573204572722E200D0A000059
:100570004578616D706C655F4576656E742C72654B
:100580006164206576656E74203A30782578202E77
:10059000200D0A002DE9F04101F088FF010002D092
:1005A0001AA003F055FE03F07FFB0F4605463843C3
:1005B00003D029461DA003F04BFEC82003F0A4F988
:1005C00003F072FB0E460446304303D021461EA0C2
:1005D00003F03EFE601B66EB0706C83876F10000AC
:1005E0000AD30021052002F007F910B120A003F082
:1005F0002FFE0020BDE8F0810121052002F0FCF86B
:1006000010B11BA003F024FE0120F3E74C4F535F11
:100610004379636C655065725469636B47657420F8
:100620003D202564202E0D0A000000004C4F535F32
:100630005469636B436F756E74476574203D202564
:1006400064202E0D0A0000004C4F535F5469636B09
:10065000436F756E744765742061667465722064BB
:10066000656C6179203D202564202E0D0A00000074
:1006700053657420496E737065637420537461749C
:10068000757320457272202E0D0A000010B58AB0D5
:100690001B4801900920ADF808004FF43470049015
:1006A00018A0059003F002FA01A907A803F04CF87E
:1006B000040002D0014616A009E01E48019001A9DD
:1006C00008A803F041F8040006D001461AA003F080
:1006D000BFFD20460AB010BD1820009000231F4A1D
:1006E00005211FA002F082FC010002D01EA003F031
:1006F000AFFD26A003F0ACFD03F086FA0020E9E789
:10070000A15C000873656E64517565756500000035
:10071000637265617465207461736B312066616911
:100720006C6564212C6572726F723A2578200D0A0F
:1007300000000000C55B0008637265617465207489
:1007400061736B32206661696C6564212C6572721D
:100750006F723A2578200D0A00000000D4000020B6
:10076000717565756500000063726561746520715F
:1007700075657565206661696C757265212C657299
:10078000726F723A2578200D0A000000637265616D
:10079000746520746865207175657565207375636F
:1007A0006365737321200D0A0000000010B58CB042
:1007B0001F4802F083FA03F079F918216846FFF721
:1007C00093FD1C4800901CA04FF43474CDE9034005
:1007D0000520ADF8040016486946001D02F0B4FF7C
:1007E00008B118A012E0182106A8FFF77DFD1C48EB
:1007F00006901CA0CDE909400420ADF81C000C486F
:1008000006A9083002F0A0FF28B119A003F020FDCE
:1008100001200CB010BD03F0F7F94FF4967003F00F
:1008200073F80348006802F08DFA0020F1E7000039
:10083000EC0000208D0800084D7574657854736BCA
:10084000310000007461736B3120637265617465FF
:10085000206661696C6564202E200D0A000000008E
:10086000D10900084D7574657854736B320000002F
:100870007461736B322063726561746520666169AF
:100880006C6564202E200D0A0000000010B518A031
:1008900003F0DEFC214C0A21206802F09FFA0028B8
:1008A0001DD01F49884222D11EA003F0D1FC4FF079
:1008B000FF31206802F092FA002818D127A003F037
:1008C000C7FC206802F032FB0021042001F094FFF5
:1008D00000280CD0BDE810402EA003F0B9BC34A015
:1008E00003F0B6FC2068BDE8104002F01FBB10BD4D
:1008F0007461736B312074727920746F2067657432
:10090000206D757465782C207761697420313020F2
:100910005469636B2E200D0A00000000EC000020DB
:10092000071D00027461736B312074696D656F750A
:100930007420616E642074727920746F206765740E
:1009400020206D757465782C207761697420666F3E
:1009500072657665722E200D0A0000007461736B5B
:1009600031207761697420666F72657665722C67D5
:100970006F74206D7574657820675F546573746D4E
:100980007578303120737563636573732E200D0A9B
:100990000000000053657420496E73706563742015
:1009A00053746174757320457272200D0A00000043
:1009B0007461736B3120676574206D757465782080
:1009C000675F546573746D757830312E200D0A00A1
:1009D00010B50EA003F03CFC174C4FF0FF3120681F
:1009E00002F0FCF920B1BDE8104014A003F030BCC7
:1009F0001AA003F02DFC642002F086FF25A003F06E
:100A000027FC2068BDE8104002F090BA7461736B57
:100A1000322074727920746F20676574206D75744C
:100A200065782C207761697420666F7265766572CF
:100A30002E200D0A00000000EC0000207461736B92
:100A400032204C4F535F4D757850656E642066615F
:100A5000696C6564202E200D0A0000007461736BC0
:100A60003220676574206D7574657820675F546502
:100A700073746D7578303120616E64207375737096
:100A8000656E6420313030205469636B2E200D0A6E
:100A9000000000007461736B3220726573756D65C0
:100AA0006420616E6420706F7374207468652067C1
:100AB0005F546573746D75783031200D0A00000045
:100AC00010B517A003F0C4FB244C0A21A06802F063
:100AD000F7FB00281DD0224988421FD1214803F08E
:100AE000B7FB4FF0FF31A06802F0EAFB002815D1F8
:100AF0001DA003F0ADFBA06802F086FC00210320DE
:100B000001F07AFE002809D0BDE8104026A003F0CD
:100B10009FBBA068BDE8104002F076BC10BD00008D
:100B20004578616D706C655F53656D5461736B31B1
:100B300020747279206765742073656D20675F7516
:100B40007353656D4944202C74696D656F7574200D
:100B50003130207469636B732E0D0A00F800002099
:100B600007070002205D00084578616D706C655FC5
:100B700053656D5461736B3120776169745F666F83
:100B8000726576657220616E6420676F742073658C
:100B90006D20675F757353656D494420737563639A
:100BA0006573732E0D0A000053657420496E7370CF
:100BB0006563742053746174757320457272200DDF
:100BC0000A00000010B50CA003F042FB184C4FF0D7
:100BD000FF31A06802F074FB10B916A003F038FBD7
:100BE000142002F091FE23A003F032FBA068BDE8C0
:100BF000104002F009BC00004578616D706C655FC3
:100C000053656D5461736B3220747279206765741B
:100C10002073656D20675F757353656D4944207758
:100C200061697420666F72657665722E0D0A000028
:100C3000F80000204578616D706C655F53656D54F8
:100C400061736B32206765742073656D20675F7513
:100C50007353656D494420616E64207468656E202D
:100C600064656C61792032307469636B73202E0D7A
:100C70000A0000004578616D706C655F53656D54C6
:100C800061736B3220706F73742073656D20675FC2
:100C9000757353656D4944202E0D0A0030B58DB033
:100CA0002549002002F0BEFA02F000FF1821684634
:100CB000FFF71AFB2148009021A04FF43474CDE9CE
:100CC00003400520ADF804001B486946083802F0CF
:100CD0003BFD08B11DA01BE0182106A8FFF704FB8F
:100CE0002048069020A0CDE909400420ADF81C0062
:100CF000114806A9001F02F027FD0F4C083C60B107
:100D00001CA003F0A5FA206802F034FE10B11FA069
:100D100003F09EFA01200DB030BD02F075FFA0680F
:100D200002F072FB0546282002F0EEFDA06802F0FA
:100D30007FFA2846EFE7000000010020C10A000802
:100D40004D7574657854736B310000007461736B7A
:100D50003120637265617465206661696C65642029
:100D60002E0D0A00C50B00084D7574657854736B21
:100D7000320000007461736B3220637265617465C8
:100D8000206661696C6564202E0D0A007461736BC6
:100D9000312064656C657465206661696C656420EA
:100DA0002E0D0A0010B586B01C4801F0A9FB08B151
:100DB0001BA01DE018216846FFF796FA1E48009018
:100DC0001EA004904FF4347003900520ADF8040089
:100DD00069461D4802F0B8FC08B11CA008E021A03B
:100DE00003F036FA01210D4801F02EFC28B127A0AE
:100DF00003F02EFA012006B010BD084C29A021688E
:100E000003F026FA2068C143204601F067FB25A0C5
:100E1000216803F01DFA0020EDE7000068040020BF
:100E2000696E6974206576656E74206661696C65AB
:100E300064202E0D0A000000C10400084576656E8E
:100E40007454736B31000000D00000207461736B28
:100E500020637265617465206661696C6564202E2B
:100E60000D0A00004578616D706C655F5461736BAD
:100E7000456E7472795F4576656E74207772697419
:100E800065206576656E74202E0D0A006576656EA8
:100E900074207772697465206661696C6564202EC0
:100EA0000D0A00004576656E744D61736B3A2564DA
:100EB000200D0A0010B5032230211D4801F0CEFE9E
:100EC00008B11CA02BE021A003F0C2F9184801F0E2
:100ED0006FFE040022D023A003F0BAF94FF44F7143
:100EE00026A0216003F0B4F92146114801F07CFEF0
:100EF00026A0216803F0ACF921460D4801F080FEE0
:100F000088B12BA003F0A4F90121082001F074FCA2
:100F100010B12EA003F09CF9002010BD32A003F008
:100F200097F9012010BD37A003F092F90021ECE7FA
:100F3000740400204D656D20626F7820696E6974BD
:100F4000206661696C6564202E0D0A004D656D2078
:100F5000626F7820696E6974206F6B21202E0D0AF4
:100F6000000000004D656D20626F7820616C6C6F31
:100F700063206F6B202E0D0A000000002A705F6E48
:100F8000756D203D202564202E0D0A00636C65617F
:100F9000722064617461206F6B200D0A202A705FDB
:100FA0006E756D203D202564202E0D0A0000000086
:100FB0004D656D20626F7820667265652066616997
:100FC0006C656421202E0D0A00000000536574201A
:100FD000496E737065637420537461747573204532
:100FE0007272202E0D0A00004D656D20626F782010
:100FF000616C6C6F63206661696C656421202E0DE5
:101000000A0000004D656D20626F7820667265658C
:10101000206F6B21202E0D0A0000000010B518A0D3
:1010200003F016F9052002F06FFC08B11AA024E0C5
:101030001FA003F00DF9264C206802F08BFD58B17B
:1010400024A003F005F90121002001F0D5FB08B12F
:1010500027A012E0012010BD2CA003F0F9F8002118
:10106000084601F0C9FB10B121A003F0F1F8206897
:1010700002F080FC0028EED02DA003F0E9F8E9E7AB
:10108000456E746572205461736B48692048616EC7
:10109000646C65722E0D0A0044656C6179205461A0
:1010A000736B204661696C65642E0D0A00000000B8
:1010B0005461736B4869204C4F535F5461736B44A8
:1010C000656C617920446F6E652E0D0A000000008A
:1010D0000401002053757370656E64205461736B56
:1010E0004869204661696C65642E0D0A00000000A5
:1010F00053657420496E7370656374205374617412
:101100007573204572722E0D0A0000005461736BD6
:101110004869204C4F535F5461736B526573756D12
:101120006520537563636573732E0D0A000000001C
:101130005461736B48692064656C657465206661F1
:10114000696C6564202E0D0A0000000010B513A024
:1011500003F07EF80A2002F0D7FB08B115A019E0D1
:101160001AA003F075F8224C206802F0ADFC58B1CB
:1011700020A003F06DF80121002001F03DFB08B133
:1011800022A007E0012010BD606802F0F3FB0028F8
:10119000F9D025A003F05CF8F4E70000456E746513
:1011A00072205461736B4C6F2048616E646C657281
:1011B0002E0D0A0044656C6179205461736B4C6F8D
:1011C000204661696C65642E0D0A00005461736BE2
:1011D0004869204C4F535F5461736B53757370654E
:1011E0006E6420537563636573732E0D0A000000EF
:1011F00004010020526573756D65205461736B485E
:1012000069204661696C65642E0D0A00536574207F
:10121000496E7370656374205374617475732045EF
:1012200072722E0D0A0000005461736B4C6F2064C3
:10123000656C657465206661696C6564202E0D0AB5
:101240000000000010B586B002F030FC1FA002F0D4
:10125000FFFF254800900420ADF8040023A04FF4C0
:101260003474CDE903406946234802F06DFA18B1A1
:1012700002F0CAFC21A01CE028A002F0E9FF3048DF
:1012800000900520ADF804002EA0CDE903401A48D7
:101290006946001D02F058FA04000FD01648006895
:1012A00002F068FB10B12AA002F0D2FF02F0ACFC01
:1012B0002EA002F0CDFF012006B010BD33A002F039
:1012C000C7FF02F0A1FC2046F6E700004C4F535F39
:1012D0005461736B4C6F636B28292053756363658E
:1012E0007373210D0A0000001D100008484947488B
:1012F0005F4E414D45000000040100204578616DBE
:10130000706C655F5461736B4869206372656174CA
:1013100065204661696C6564210D0A004578616D40
:10132000706C655F5461736B4869206372656174AA
:10133000652053756363657373210D0A0000000017
:101340004D1100084C4F575F4E414D4500000000C5
:101350005461736B48692064656C657465206661CF
:10136000696C6564202E0D0A000000004578616DEF
:10137000706C655F5461736B4C6F20637265617450
:1013800065204661696C6564210D0A004578616DD0
:10139000706C655F5461736B4C6F20637265617430
:1013A000652053756363657373210D0A00000000A7
:1013B0002DE9F0413FA002F04BFF434F0821386870
:1013C00001F05EFB05004BD06D602D603FA002F088
:1013D0003FFF0821386801F053FB040042D0082188
:1013E000386801F04DFB060040D00821B846386847
:1013F00001F046FB07003FD02146284601F02CFBB8
:101400003146204601F028FB2068A84202D030680F
:10141000A04202D135A002F01BFF3946286801F036
:101420001BFB3868B04202D135A002F011FF39A091
:1014300002F00EFFD4E900010860D4E90001416028
:101440000020606020602146D8F8000001F02EFBEB
:101450006868B04220D134A002F0FAFE00211FE0FB
:1014600037A000E03BA002F0F3FE12E034A002F04F
:10147000EFFE214638680AE031A002F0E9FE21467D
:101480004446D8F8000001F011FB3146206801F015
:101490000DFB0120BDE8F08132A002F0D9FE012150
:1014A000072001F0A9F910B133A002F0D1FE00200D
:1014B000F0E70000696E697469616C2E2E2E2E2E85
:1014C0002E200D0A00000000000000206E6F6465F1
:1014D0002061646420616E64207461696C206164C1
:1014E000642E2E2E2E2E2E0D0A0000006164642024
:1014F0006E6F64652073756363657373200D0A00F6
:10150000616464207461696C2073756363657373CF
:10151000200D0A0064656C657465206E6F64652E2D
:101520002E2E2E2E2E0D0A0064656C657465206EBD
:101530006F646520737563636573730D0A00000043
:101540006D616C6C6F63206661696C6564200D0A67
:10155000000000006D616C6C6F63206661696C65F2
:10156000640A000064656C657465206E6F646520B4
:101570006572726F720D0A0053657420496E737044
:1015800065637420537461747573204572720D0A1B
:101590000000000070B586B0002501244FF47A7673
:1015A000009403AB334A29463046CDE9014501F0AA
:1015B0009FFF08B130A000E036A002F049FE009481
:1015C00004AB3B4A01216420CDE9014501F090FFC5
:1015D00008B138A000E03EA002F03AFEBDF80C00D1
:1015E00002F016F808B141A000E046A002F030FE7B
:1015F000C82002F089F9BDF80C0002F06DF808B1BE
:1016000046A000E04BA002F023FEBDF80C0001F064
:10161000FFFF10B135A002F01BFE304602F074F956
:10162000BDF80C0001F0BAFF08B148A000E04EA0E0
:1016300002F00EFEBDF8100001F0EAFF08B151A063
:1016400000E056A002F004FE304602F05DF9BDF85D
:10165000100002F041F810B157A002F0F9FDBDF8FA
:10166000100001F09BFF10B159A002F0F1FD06B08F
:10167000002070BD6D3E0008637265617465205482
:10168000696D657231206661696C6564202E0D0A92
:10169000000000006372656174652054696D6572B5
:1016A000312073756363657373202E0D0A0000008B
:1016B000C13E00086372656174652054696D65728E
:1016C00032206661696C6564202E0D0A00000000FE
:1016D0006372656174652054696D6572322073753B
:1016E0006363657373202E0D0A00000073746172CA
:1016F000742054696D657231206661696C6564207F
:101700002E0D0A0073746172742054696D65723114
:1017100020737563657373202E0D0A0073746F70E8
:101720002054696D657231206661696C6564202E94
:101730000D0A000073746F702054696D657231205A
:10174000737563657373202E0D0A000064656C6504
:1017500074652054696D657231206661696C6564D9
:10176000202E0D0A0000000064656C65746520542D
:10177000696D65723120737563657373202E0D0A70
:101780000000000073746172742054696D657232D8
:10179000206661696C6564202E0D0A0073746172A5
:1017A000742054696D657232207375636365737359
:1017B000202E0D0A0000000073746F702054696DB4
:1017C000657232206661696C6564202E0D0A000026
:1017D00064656C6574652054696D6572322066615C
:1017E000696C6564202E0D0A000000002DE9F05F91
:1017F00090F821100024022903D0042181630124E0
:1018000085E001680A6822F00E020A6001680A6831
:1018100022F001020A603F4E3E4FB215DFF8F4C0DD
:10182000DFF8F090DFF8ECA0DFF8E8B0DFF8E4E0F4
:101830000168783F13011502ACF1640CA9F150095D
:10184000AAF13C0AABF1280BAEF1140E4FF480184C
:10185000B14227D9B9420ED0614512D049451DD0B9
:10186000514518D0594518D0714501D1424615E06F
:10187000294EB14201D1012210E0274E1436B14267
:1018800001D110220AE0244E2836B14206D0224A65
:101890003C32914201D11A4600E02A461E49091FF6
:1018A0000A602BE0B94213D0614517D0494522D0D8
:1018B00051451DD059451DD0714501D142461AE010
:1018C000B14202D14FF0807215E0134EB14201D106
:1018D000012210E0104E1436B14201D110220AE06C
:1018E0000D4E2836B14206D00B4A3C32914201D10E
:1018F0001A4600E02A46074980394A60012180F8EB
:101900002110002180F82010416B01B1884720464A
:10191000BDE8F09F800002400804024070470000CC
:10192000044910B50A68024202D00860FFF7F6FFCA
:1019300010BD0000140401402DE9F84FDFF8B8A1F4
:1019400000220AF1040B144601274FF00F090BF196
:10195000040E00BF0B6807FA04F52B40AB4274D1AC
:10196000DFF898C14E68A6EB0C0866452BD00DDC5D
:10197000032E34D005DC36B3012E19D0022E2FD120
:101980001BE0112E16D0122E2AD119E0B8F5881FAF
:1019900019D006DCB8F5803F15D0B8F5801F1FD1EF
:1019A00011E0B8F5001F0ED0B8F5041F18D10AE0F9
:1019B000CA6815E0CA68121D12E0CA6808320FE052
:1019C000CA680C320CE08A682AB1012A4FF008027A
:1019D00003D0456104E0042202E0056100E000223A
:1019E000FF2B01D8064601E000F104064FEA84050A
:1019F00001D9A5F12005D6F800C009FA05F82CEAAE
:101A0000080C02FA05F54CEA050CC6F800C04D6852
:101A1000ED006AD53A4DAE6946F00106AE61AD699A
:101A200024F0030605F001050095364D06EB050C84
:101A3000DCF80850A6074FEA167809FA08F6B5430D
:101A4000314EB04202D100261AE04EE02F4EB04295
:101A500001D1012614E02E4EB04201D102260FE042
:101A60002C4EB04201D103260AE02B4EB04201D1E8
:101A7000042605E0294EB04201D1052600E00626E5
:101A800006FA08F62E43CCF808604D68DAF80060D4
:101A9000ED03554601D51E4300E09E432E604D6880
:101AA000AD0305D5DBF800601E43CBF8006004E011
:101AB000DBF800509D43CBF800504D68DEF8006025
:101AC000ED02754601D51E4300E09E432E604D6831
:101AD000AD0205D5084D0C352E681E432E6004E07E
:101AE000054E0C3635689D433560641C102CFFF4A0
:101AF00031AFBDE8F88F0000000401400000111074
:101B0000001002400000014000080140000C0140AC
:101B1000001001400014014000180140001C014069
:101B20000AB1016170470904FBE7000001488068C1
:101B300070470000BC010020074810B5016841F063
:101B400010010160032000F09DF8002000F006F86D
:101B500000F024F8002010BD0020024070B50D4DAB
:101B600004464FF47A712878B1FBF0F00A4909680D
:101B7000B1FBF0F000F02CFB48B9102C07D200228A
:101B80002146501E00F05EF800206C6070BD012000
:101B900070BD0000BC010020C8010020214808B52C
:101BA000816941F001018161816901F001010091C8
:101BB000C16941F08051C161C06900F0805000905E
:101BC000052000F05FF8002211466FF00B0000F0D6
:101BD00039F8002211466FF00A0000F033F80022B5
:101BE00011466FF0090000F02DF800221146501F39
:101BF00000F028F800221146101F00F023F8002200
:101C00001146901E00F01EF800221146501E00F0F2
:101C100019F80548416821F0E06141F080614160B8
:101C200008BD0000001002400000014000F01F024B
:101C3000012191404009800000F1E020C0F800112E
:101C400070470000F0B40E4B1B680C46C3F3022330
:101C5000C3F10705042D00D90425191D072901D258
:101C6000002300E0DB1E012606FA05F1491E214093
:101C700099409E40761E16403143F0BC02F07AB87F
:101C80000CED00E0064900F0070208684FF6FF037C
:101C9000184040EA0220034A1043086070470000E1
:101CA0000CED00E00000FA052DE9F047DFF83C817B
:101CB00005460E46D8F8000000F00700B0420CD2EE
:101CC000D8F8001021F007013143C8F80010D8F807
:101CD000000000F00700B04263D12878444C800730
:101CE00005D56068A96820F0F00008436060287896
:101CF000C00745D06868012816D02168022816D090
:101D0000890700294DDA616821F003010143616010
:101D1000FFF70CFF6968074641F2883001290FD0B0
:101D20000229814619D027E021688903E9E7890162
:101D3000E7E700BFFFF7FAFEC11B494501D918E0EC
:101D400081466068C0F381000128F3D118E000BF2C
:101D5000FFF7ECFEC11B49450BD86068C0F381005A
:101D60000228F5D10CE000BFFFF7E0FEC11B49459A
:101D700002D90320BDE8F087606810F00C0FF3D1A2
:101D8000D8F80010404601F00701B1420BD90168B4
:101D900021F0070131430160006800F00700B04204
:101DA00001D00120E6E72878400705D56068E9689A
:101DB00020F4E060084360602878000706D560687A
:101DC000296920F4605040EAC100606000F03CF8EE
:101DD0006168084AC1F30311515CC84006490860B4
:101DE0000020FFF7BBFE0020C4E7000000200240F7
:101DF00000100240085D0008C8010020014800688A
:101E000070470000C801002004480549006849687F
:101E1000044AC1F30221515CC8407047C801002048
:101E200000100240185D0008044805490068496830
:101E3000044AC1F3C221515CC8407047C801002068
:101E400000100240185D000812A185B00FC98DE88E
:101E50000F0014A0144A006804905168134801F060
:101E60000C03042B10D0082B0ED1C1F38343C903FC
:101E70001DF803000AD5516804AAC1F34041515C22
:101E80000A4A5043B0FBF1F005B070470849484397
:101E9000FAE7000002030405060708090A0B0C0D07
:101EA0000E0F1010010200000010024000127A0014
:101EB00000093D002DE9F84F04460078B94DC007F0
:101EC00048D06868C0F38100012807D06868C0F373
:101ED0008100022809D16868C00306D528688003FC
:101EE00038D5606800286FD034E06068B0F5803F76
:101EF0000BD010B1B0F5A02F11D0286820F480309D
:101F00002860286820F4802002E0286840F48030AF
:101F10002860606888B1FFF709FE064609E0286876
:101F200040F480202860F0E7FFF700FE801B642863
:101F300075D828688003F7D50CE0FFF7F7FD064653
:101F400005E000BFFFF7F2FD801B6428F0D8286889
:101F50008003F7D42078944E80074FF001094FF0AA
:101F600000083BD5686810F00C0F07D06868C0F314
:101F70008100022809D16868C00306D42868800758
:101F800014D5206901281FD110E02069B0B1C6F82E
:101F90000090FFF7CBFD074605E000BFFFF7C6FD49
:101FA000C01B0228C4D828688007F7D52868616953
:101FB00020F0F80040EAC10028600FE0C6F8008079
:101FC000FFF7B4FD074606E0E9E000BFFFF7AEFD0E
:101FD000C01B022823D828688007F7D42078000780
:101FE0002CD57248A169D9B1C0F80090FFF79EFDC9
:101FF000074604E0FFF79AFDC01B02280FD8686A65
:102000008007F7D56A484FF4FA510068B0FBF1F049
:10201000009000BF0098411E0091FAD20EE080E0CF
:10202000C0F80080FFF782FD074604E0FFF77EFD61
:10203000C01B022875D8686A8007F7D4207840074B
:1020400060D5E8690027C00008D4E86940F08050F6
:10205000E861E869012700F0805000905548016868
:10206000C90513D40168834641F480710160FFF70C
:102070005DFD824606E000BFFFF758FDA0EB0A00B9
:1020800064284ED8DBF80000C005F5D5E0680128CB
:102090000AD008B1052813D0286A20F00100286270
:1020A000286A20F0040002E0286A40F0010028625B
:1020B000E06841F2883B98B1FFF738FD82460BE0BB
:1020C000286A40F004002862EEE700BFFFF72EFD0B
:1020D000A0EB0A0159455AD8286A8007F6D50CE0CA
:1020E000FFF724FD824605E0FFF720FDA0EB0A0183
:1020F00059454CD8286A8007F6D41FB1E86920F00A
:102100008050E861E06988B36968C1F38101022900
:1021100045D00228C6F8608004D0FFF707FD0446CA
:1021200038E034E0FFF702FD074604E0FFF7FEFC6D
:10213000C01B02282BD828688001F7D4206AB0F58C
:10214000803F05D16868A16820F4003008436860CA
:10215000D4E908010843696821F4741108436860F0
:10216000C6F86090FFF7E2FC044606E015E000BF09
:10217000FFF7DCFC001B022809D828688001F7D58E
:102180000BE000BFFFF7D2FC001B022802D903209E
:10219000BDE8F88F28688001F4D40020F8E701201A
:1021A000F6E7000000100240000042428004424274
:1021B000C8010020007000404FF0E02104280869A9
:1021C00003D020F004000861704740F00400FAE7F3
:1021D00010B5401EB0F1807F01D3012010BD4FF03B
:1021E000E02460610F21601701F0C4FD0020A061B0
:1021F00007202061002010BD7047000070B5026804
:1022000004461068D168536910F00F0F50D003F0E6
:10221000010501F4907635435DD0C20705D0CA05AB
:1022200003D5E26B42F00102E263420705D5DA070B
:1022300003D0E26B42F00202E263820705D5DA07BF
:1022400003D0E26B42F00402E263020705D5DA072D
:1022500003D0E26B42F00802E263E26B002A33D063
:10226000800604D5880602D5204601F081FE20684C
:102270004069E16BC0F38010090700D428B3204601
:1022800001F068FE2068416949061AD5416921F0CC
:1022900040014161606BA0B11B494163606BFFF776
:1022A000A5FA002810D0606B416BBDE8704008476C
:1022B000830610D58B060ED52046BDE8704001F090
:1022C00057BE2046FFF798FF70BD2046FFF794FFEA
:1022D0000020E06370BD030606D50B0604D520463A
:1022E000BDE8704001F048BF4006F3D54806F1D57F
:1022F000D168204621F04001D160202184F83910B6
:1023000000F0C8F870BD0000453F000870B504003B
:1023100004D094F83900002510B106E0012070BD0A
:1023200084F83850204600F023F8242084F839003F
:102330002068C16821F40051C160204601F064FEAC
:102340002068016921F4904101612068416921F010
:102350002A0141612068C16841F40051C160E56310
:10236000202084F8390084F83A00002070BD000075
:1023700010B50068154986B0884225D11448816996
:1023800041F4804181618069124C00F480400490E6
:102390004FF40070009002200190032003906946E2
:1023A0002046FFF7C9FA00212015CDE9000102916E
:1023B00069462046FFF7C0FA002211462520FFF7A4
:1023C00041FC2520FFF732FC06B010BD003801406B
:1023D000001002400008014070472DE9F843044610
:1023E00090F839001F4616460D46202850D1A5B159
:1023F0009EB194F8380001284AD0012084F83800B2
:102400004FF00008C4F83C80212084F83900FFF721
:102410008DFBA6848146E68426E00120BDE8F88392
:10242000E08C401EE084A0684B46B0F5805F4FF022
:1024300000024FF080012046009703D001F0CDFE4E
:10244000E8B90DE001F0C9FEC8B928882168C0F3D9
:1024500008004860206908B16D1C05E0AD1C03E070
:10246000216815F8010B4860E08C0028D8D14B4654
:10247000002240212046009701F0AFFE08B1032062
:10248000CCE7202084F8390084F838800020C5E7A4
:102490000220C3E77047FEE74218491E521E8242DF
:1024A00002D922EA010070478843704703484FF47D
:1024B0007A710068B0FBF1F070470000C80100209D
:1024C00038B5054D0C4604992D6815B1009121468B
:1024D000A847002038BD0000CC00002070B50D4694
:1024E000040008D0FDF764FE216829402160FDF753
:1024F00067FE002070BD014870BD0000061C000290
:1025000028B1002102C040600060084670470148C1
:1025100070470000061C00022DE9F04117460D46E9
:1025200006460024FDF744FE0146B80704D530688E
:1025300028400ED0044607E05DB1306835EA00025D
:1025400007D110EA050404D0F80702D03068A04390
:1025500030600846FDF734FE2046BDE8F0810000FB
:102560002DE9F047984615460F46060009D0B06899
:1025700050B1706840B157B1B8010BD52F48BDE8D4
:10258000F0872E48801DFAE72C48C01DF7E72B483E
:10259000801CF4E7A80701D568070AD4E80808D129
:1025A00015F0060F05D002F0CFFA28B12348C01C61
:1025B000E5E72248001DE2E7FDF7FAFD81462A46DD
:1025C00039463046FFF7A8FF04000BD1B8F1000FE1
:1025D00008D01B48008838B14846FDF7F1FD174880
:1025E000401DCCE7484625E01648424608210468CD
:1025F000301DC4E9127503F0D5F94846FDF7E0FD3A
:1026000000F0F0FD207940060AD5FDF7D1FDA18844
:1026100021F04001A180FDF7D3FD0848401CAEE742
:10262000FDF7C6FD80462A4639463046FFF774FF5F
:1026300004464046FDF7C4FD2046A0E7001C00020A
:1026400028000020480000202DE9F0410E4604003B
:102650004FF0000708D0A06848B1606838B1B001F9
:1026600008D51C48BDE8F0811A48801DFAE71948D2
:10267000C01DF7E7FDF79CFD80462068211D304313
:102680002060A068884219D0283812E0C56AC16C61
:10269000283D8A0702D5826C324205D1490707D509
:1026A000816C2268914303D10127082103F0A0F92E
:1026B0002846011B2431E9D1012F03D04046FDF704
:1026C0007FFD04E04046FDF77BFD00F08BFD002020
:1026D000C8E70000001C00022DE9F041FF260A288F
:1026E00002D301461FA015E02549002501EB051482
:1026F000227882422AD101EB0511496841B188470D
:102700000746607850EA070107D001280CD014E092
:1027100001461CA001F09CFD1EE004F1080125A06B
:1027200001F096FD002608E015480126083804F15E
:102730000801026825A001F08BFD642001F0E4F897
:102740006078FF28DDD0B042DBD102E06D1C0A2D9D
:10275000CCD30A2D00D016B10120BDE8F0810020B5
:10276000FBE700000D0A496E7370656374494420ED
:102770003D205B25645D204572722E0D0A0000002D
:102780001C010020496E73706563744944203D202C
:102790005B25645D204572722C496E7370656374AD
:1027A00066756E63206973204E554C4C2E0D0A0DD4
:1027B0000A000000496E73706563742025732073EE
:1027C0007563636573730D0A0D0A0000496E7370BB
:1027D000656374202573206572726F722C67496E71
:1027E0007370656374457272436E74203D205B257F
:1027F000645D0D0A0D0A000010B500220A2802D3FC
:1028000001460CA012E0124B03EB02142478844220
:1028100003D103EB0213597002E0521C0A2AF3D3CE
:102820000A2A01D0002010BD01460AA001F010FDC7
:10283000012010BD0D0A496E737065637449442010
:102840003D205B25645D204572722E0D0A0000005C
:102850001C0100200D0A496E7370656374494420A1
:102860003D205B25645D206E6F742066696E642E6A
:102870000D0A000000B587B018216846FDF734FD49
:10288000094800904FF43470039008A00490092088
:10289000ADF804006946084800F056FF002800D053
:1028A000012007B000BD0000BD280008496E73700C
:1028B00065637454736B00001801002000200A4DFA
:1028C00028600AA001F0C4FC0024E0B2FFF704FF76
:1028D00010B12868401C2860641C0A2CF5D309A09C
:1028E000296801F0B5FCFEE7140100200D0A4C6FC9
:1028F0007320496E73706563742073746172742EF3
:102900000D0A0000496E737065637420636F6D700B
:102910006C657465642C67496E7370656374457289
:1029200072436E74203D205B25645D0D0A0D0A0024
:1029300010B520491020086020491F48086002F0A7
:1029400007F9040007D01EA001F082FC21461EA05A
:1029500001F07EFC25E002F095FE040004D018A0F2
:1029600001F076FC1FA01AE002F0F6FE02F062FB16
:10297000002817D102F0F6F8002813D102F0F4F97C
:10298000040004D00EA001F063FC1BA007E002F0DD
:102990005FFC040007D00AA001F05AFC1BA001F064
:1029A00057FC204610BD03F0C5F8BDE8104002F00A
:1029B000ABB8000038000020F80A0020000000201A
:1029C0005B4552525D2000006F734D656D53797306
:1029D00074656D496E6974206572726F722025642A
:1029E0000A0000006F735461736B496E697420654F
:1029F00072726F720A0000006F73517565756549D8
:102A00006E6974206572726F720A00006F7353777B
:102A1000546D72496E6974206572726F720A00009B
:102A20004268C1E900024268116041607047426833
:102A3000C1E9000242681160416070474268C1E923
:102A4000000242681160416070474268C1E90002BB
:102A500042681160416070474268C1E90002426803
:102A6000116041607047D0E900121160D0E9001296
:102A70004A6000214160016070470068FFF7D0BFE5
:102A800070B505000C464FF000000CD0002C0AD0A9
:102A9000284602F052FB002805D121462846BDE811
:102AA000704001F0B3BE70BD01F040BF70B50C4680
:102AB00005000AD04CB102F071FB012807D0214675
:102AC000284601F051FF012801D0012070BD0020EF
:102AD00070BD00002DE9F84FDFF898A00F46050003
:102AE000DAF80040A04603D0502F01D9A80702D041
:102AF0000120BDE8F88FFDF75BFB8146EE1918E079
:102B0000A068A542204401D8A64203D885420ED22F
:102B100086420CD318A001F09BFBA06832462044EB
:102B200000902346294616A001F092FB1BE0A04628
:102B3000E468002CE4D13946284601F097FF90B1B3
:102B4000B7F5805F03D3284602F058FB58B1DAF896
:102B5000001061B1C8F80C500020E8604846FDF74D
:102B60002FFB0020C5E74846FDF72AFBC0E7CAF85F
:102B70000050F1E7C80000205B4552525D20000084
:102B8000706F6F6C205B25702C20307825782920A1
:102B9000636F6E666C696374207769746820706F08
:102BA0006F6C205B25702C2030782578290A000076
:102BB00070B5041E10D0FDF7FBFAE16804F10C02B9
:102BC00059B10D460968116006492960A168491C80
:102BD000A160FDF7F5FA281D70BDFDF7F1FA0020A0
:102BE00070BD0000A55A5AA50A46002806D0002A42
:102BF00004D001681046091FFDF776BB704700003E
:102C000070B50C4605004FF001060ED06CB1FDF713
:102C1000CFFA02462868241FC8B1611B1039B1FBE6
:102C2000F0F300FB131393B901E0012070BDB1FB79
:102C3000F0F1686881420AD207492068884206D1CB
:102C4000E8682060EC60A868401E0026A860104676
:102C5000FDF7B6FA304670BDA55A5AA570B51546AF
:102C60000E46041E04D01DB1102E01D3A00701D0C2
:102C7000012070BDFDF79CFAED1D25F00301103E0B
:102C80002160B6FBF1F10023C4E9011321B104F185
:102C900010010022E16007E0FDF792FAE8E72568FD
:102CA000521C0D440D60294665686D1E9542F6D88C
:102CB0000B60FDF785FA002070BD000038B50500F7
:102CC00014D0FDF775FA1749024600244868884277
:102CD0000FD11046FDF774FA134D144900232A460C
:102CE00013A00094FFF7ECFB284638BD0E48401EA9
:102CF00038BDD0E900131960D0E900134B6020F80B
:102D0000064C012100F8081D00F108018482C0E989
:102D100003148160406828601046FDF751FA0020D6
:102D200038BD000098000020031D0002F8C3B2A1C6
:102D30006F735F756E73706563696669635F6669FB
:102D40006C6500002DE9F8431C4F1D4D4FF0000845
:102D50000F2801D33C4616E01A4900EB40000968F1
:102D600001EBC004FDF724FA06462078B0B1E06814
:102D700004F10801884201D1608898B13046FDF71E
:102D80001FFA0E4C08342946002322460EA0CDF827
:102D90000080FFF795FB2046BDE8F8833046FDF73D
:102DA0000FFAD7E70748001DFFF741FE84F80080BF
:102DB0003046FDF705FA0020EEE70000011D000295
:102DC000F8C3B2A1940000206F735F756E737065D5
:102DD00063696669635F66696C6500002DE9F843A5
:102DE00000263D4DDFF8F48089460F2804D30023E8
:102DF0002C462A46009666E0394900EB40000968F7
:102E000001EBC004FDF7D4F90746207848B101F082
:102E10009BFE50B13846FDF7D3F92F48001DBDE8A1
:102E2000F8833846FDF7CCF9E1E72E48056860885D
:102E300040B12169A9420BD1401C60803846FDF7A2
:102E4000BFF946E0012060802561E888A082F5E7AF
:102E5000B9F1000F0ED02448008888B11E4C23A081
:102E6000641D01F0F5F923A001F0F2F93846FDF7F1
:102E7000A7F925E03846FDF7A3F91748C01CCEE7AF
:102E8000EC612069E988C2888A4201D902F07AFCA3
:102E90004A46082104F1080002F084FD3846FDF797
:102EA0008FF900F09FF92879400612D5FDF780F9D7
:102EB000A98821F04001A980FDF782F9064CA41DE4
:102EC000002322460096414613A0FFF7F9FA204658
:102ED000A5E70020A3E70000011D0002F8C3B2A18E
:102EE0009400002048000020280000205B4552523A
:102EF0005D2000002121214C4F535F4552524E4F1F
:102F00005F4D55585F50454E445F494E5F4C4F43AF
:102F10004B2121210A0000006F735F756E7370658D
:102F200063696669635F66696C6500002DE9F84353
:102F30002549804600EB4800096801EBC004FDF715
:102F400037F90026214DDFF888900746B8F10F0FBA
:102F500008D2207830B11F486188026811B1206919
:102F600090420CD03846FDF72BF900232A464946FB
:102F700019A00096FFF7A4FA2846BDE8F883491E79
:102F80000904090C618003D03846FDF719F919E0EE
:102F9000C288A18A8A4201D002F0F4FBE06804F101
:102FA00008018842F0D00121618028382061C18861
:102FB000A1820821C66102F01BFD3846FDF700F929
:102FC00000F010F90020D8E794000020011D000255
:102FD000F8C3B2A1480000206F735F756E7370650F
:102FE00063696669635F66696C6500002DE9F04797
:102FF0000D4608985FEA020900F104018FB206D07D
:103000004FF6FB71884205D92648BDE8F087254870
:103010000930FAE7E5B1D8B1DFF88C8005FB07F19C
:10302000D8F80000FFF72CFD060014D0FDF7C0F81B
:103030001E4A01465068904210D10846FDF7C0F87C
:103040003146D8F80000FFF731FD1648401CDCE798
:1030500014480A30D9E71348401ED6E7D0E90023C8
:10306000A0F11C041A60D0E900235360E580278199
:10307000012326600022A38022826582A281E28150
:10308000A0F10802526012604060006008304060A9
:1030900000600846FDF794F861890020C9F8001027
:1030A000B3E700000306000200000020A400002097
:1030B00070B504460A2801D3204870BDFDF778F8A2
:1030C0001F49054604EB4400096800EBC40001EB0E
:1030D00080029088C0B1194C916902F11400E41C7F
:1030E000814213D1106A02F11C0188420ED1936A09
:1030F00002F12400834209D1508A138A1844D388EC
:10310000984208D0E41C01E00C4C641D2846FDF7F1
:1031100057F8204670BD0020146810609080084861
:10312000001DFFF78BFC2846FDF74AF805482146AD
:103130000068BDE87040FFF7B9BC0000050600025A
:10314000A0000020000000207FB582B01C460D4684
:10315000064604AA01F0EAFE002806D1042104ABC9
:103160002A463046009401F02DFE06B070BDF8B539
:103170001C4615460E46074601F0D8FE002806D12B
:1031800000212B4632463846009401F01BFEF8BD64
:103190003FB581B00546042003901C4603AA28468B
:1031A000029901F0DDFE002806D1072103AB02AA37
:1031B0002846009401F006FE05B030BD7FB582B010
:1031C0001C460D46064604AA01F0CAFE002806D198
:1031D000032104AB2A463046009401F0F3FD06B00B
:1031E00070BD000010B5FCF7E3FF044601F046FD9A
:1031F0000A49283848600968814202D00848008896
:1032000020B12046BDE81040FCF7DABF2046FCF7AD
:10321000D7FFBDE81040FCF7D6BF000048000020F3
:10322000280000200A464FF6FF7101F0B5BE0000ED
:103230002DE9F8431A4F1B4D4FF00008142801D315
:103240003C4612E01849096801EB0014FCF7B0FF96
:1032500006462088A0B1E06804F10801884213D036
:103260003046FCF7ADFF0E4C0834294600232246B9
:103270000EA0CDF80080FFF723F92046BDE8F883C3
:103280003046FCF79DFFDBE70748001DFFF7DDFB3D
:10329000A4F800803046FCF793FF0020EEE7000022
:1032A00001070002F8C3B2A1AC0000206F735F7584
:1032B0006E73706563696669635F66696C6500005B
:1032C0002DE9F8430026324FDFF8C88089461428DC
:1032D00004D300233C463A46009650E02E49096844
:1032E00001EB0014FCF764FF0546208838B16088C4
:1032F00048B1401E60802846FCF762FF46E0284641
:10330000FCF75EFFE5E7B9F1000F09D001F01CFC06
:1033100048B11F4C21A0241D00F09AFF21A00BE012
:103320001B4CE41C25E02848008840B1184C1BA029
:10333000641D00F08DFF25A000F08AFF19E02C48E5
:103340004A460821076804F10800BC6102F02AFB24
:103350002846FCF735FFFFF745FF3879400615D5BD
:10336000FCF726FF0546B888094C20F04000B880DD
:10337000A41D2846FCF724FF002322460096414660
:103380001CA0FFF79DF82046BDE8F8830020FBE76E
:1033900001070002F8C3B2A1AC0000205B45525205
:1033A0005D2000002121214C4F535F4552524E4F6A
:1033B0005F53454D5F50454E445F494E5445525210
:1033C0002121210A00000000280000202121214C99
:1033D0004F535F4552524E4F5F53454D5F50454EE0
:1033E000445F494E5F4C4F434B2121210A000000AE
:1033F000480000206F735F756E737065636966695E
:10340000635F66696C6500002DE9F8432149224F2E
:103410001428096801EB001402D33846BDE8F8838C
:10342000FCF7C6FE06462088DFF87080002588B1CC
:10343000A0886188884215D13046FCF7C1FE164C41
:103440000023E41D22460095414615A0FFF738F8F9
:103450002046E3E73046FCF7B3FE00233C463A46FD
:103460000095F1E7E06804F1080290420BD040F8C3
:10347000105C0821283802F0BBFA3046FCF7A0FEA9
:10348000FFF7B0FE04E0491C61803046FCF798FE6F
:103490000020C3E7AC00002001070002F8C3B2A17E
:1034A0006F735F756E73706563696669635F666984
:1034B0006C65000010B502F0CFFA040006D005A03C
:1034C00000F0C6FE05A000F0C3FE01E0FCF74CFED4
:1034D000204610BD5B4552525D2000006F73546959
:1034E000636B5374617274206572726F720A0000AC
:1034F0002DE9F05F9846DDE90B76DDF828B09146BE
:103500000D465FEA000A07D04DB1012D07D0022D0C
:1035100005D02048BDE8F09F1E48401EFAE7B9F1EB
:10352000000F08D0B8F1000F08D057B1012F08D014
:1035300018480F30EEE71748801EEBE71548401C8F
:10354000E8E7012E03D016B112481030E2E7FCF78D
:103550002FFE11494C69C4B122684A61FCF730FE64
:10356000C4F818906571002044F80C0BA4E8010C15
:10357000012004F8127C04F8116C04F8140C34F8DF
:10358000101CA8F800100020C4E7FCF719FE014841
:10359000801CBFE7020300020C0000202DE9F0416F
:1035A000064600254FF6F070DFF85C80864202D3B5
:1035B0004046BDE8F081FCF7FBFD1449074606F0E4
:1035C0000F000969C0EBC00001EB80042089B04204
:1035D00003D03846FCF7F4FDEAE7207950B1012822
:1035E0000ED0022809D0084D09353846FCF7E8FD11
:1035F0002846DEE7044D6D1CF7E7204601F0BEFFCC
:10360000204601F09BFFF0E7050300020C000020BC
:103610002DE9F041074600254FF6F070DFF8AC8049
:10362000874202D34046BDE8F081FCF7C1FD28493E
:10363000064607F00F000969C0EBC00001EB8004EB
:103640002089B84203D03046FCF7BAFDEAE7E179B9
:10365000012923D16179012920D100F00F021D48F1
:103660000A2350F8221041F0804140F822102269CC
:10367000B2FBF3F703FB172282B9227A41F0005123
:1036800002F00F0240F822102269B2FBF3F2237A13
:1036900062F3170103F00F0340F82310207950B1B3
:1036A00001280ED0022809D0084D09353046FCF714
:1036B00087FD2846B7E7054D6D1CF7E7204601F06A
:1036C0005DFF204601F004FEF0E700000503000264
:1036D0000C000020D00100202DE9F0410546002417
:1036E0004FF6F070164F854202D33846BDE8F081A0
:1036F000FCF75EFD1349064605F00F000969C0EBB3
:10370000C00001EB80000189A94203D03046FCF7DC
:1037100057FDEAE7017951B101290BD002290CD0FC
:10372000074C09343046FCF74BFD2046DEE7044CDD
:10373000641CF7E7024C0834F4E701F01FFFF1E7DF
:10374000050300020C00002070B5044600F034F8B8
:10375000002829D1174D2068C0EBC000E96800EBB4
:10376000400001EB8004FCF723FD0646A08820F012
:10377000020040F00400A080E18804F1280001F07C
:1037800039FA01F07BFA05F1200128384860EA692E
:103790005AB12A884AB90968814206D03046FCF7F6
:1037A0000FFD01F0F7FB002070BD3046FCF708FD6F
:1037B000F9E70000280000202DE9F0470D465FEAF8
:1037C00000084FF0FF3A16D0C5B12869C8B1296882
:1037D000D1B1AA8846481F2A0BD802D1454A914246
:1037E00007D14549454AE868511A88420FD94048EF
:1037F0001D30BDE8F0873E48001DFAE73C48801EBA
:10380000F7E73B48801CF4E73948401CF1E710B962
:103810004FF43470E8600821FEF73EFEE860B0F532
:10382000987F02D23248C01CE3E7FCF7C1FC064691
:103830004FF00009324C10E0A1F128070846FFF7CD
:1038400012F92F4807F128010838FFF7E9F82A484C
:10385000F968FFF72BF9C7F80C906168A142EBD12A
:10386000274908394868884202D1214C0E3439E092
:10387000A0F12804FFF7F7F83046FCF7A1FC276910
:1038800008221D48E968FFF70FF9060020D002461C
:103890003846E96802F056F92060A868E6602062C0
:1038A000E868C4F81890C4F81C900221A060A180B8
:1038B000A988E1802968C4F83CA0C4F848906161F7
:1038C0002969C4F8509061620020C8F8007090E740
:1038D000FCF76EFC06460A4804F128010838FFF799
:1038E0009FF8084C3046FCF76BFC204681E700004F
:1038F00003020002054B0008F80A00200000012026
:10390000600000200002000370B5054601F01CF9BC
:1039100008B1154870BD1548008808B1144870BD3D
:10392000EDB1FCF745FC114C0646203420682830E8
:1039300001F044F92068818821F004018180294642
:10394000206801F045FE2068818841F020018180D7
:103950003046FCF735FCFFF745FC002070BDBDE8A4
:10396000704000F069B900000D020003280000203B
:103970000E0200022DE9F047494D07464FF0FF3A8D
:103980006869874202D14748BDE8F087A869874245
:1039900002D144480D30F7E72869874202D34148F5
:1039A0000D38F1E7FCF704FC8046C7EBC700E96877
:1039B00000EB400001EB8004A688F00706D0394CEC
:1039C00040460A3CFCF7FCFB2046DDE7F0064FF0E2
:1039D000000903D5288808B1A5F80090700708D51C
:1039E00004F1280001F0EAF8A08820F00400A0808B
:1039F00007E042F20800064203D004F12800FFF776
:103A000032F816F0600F02D0204602F05DF8A08870
:103A100020F0020040F00100A080C4F83CA0C4F8EF
:103A2000489001F02BF91E4E4FF0010A203628383D
:103A300070602079C0061FD504F1280106F1180036
:103A4000FFF71BF82869E968C0EBC00000EB4000F5
:103A500001EB8000306007613168A08888803068A1
:103A6000E168C160616A4162A4F804A04046FCF7C5
:103A7000A7FB01F08FFA10E00948A4F804A004F1B4
:103A800028013030FEF7CCFF0748E168FFF70EF859
:103A90004046C4F80C90FCF793FB002074E700004C
:103AA0002800002014020002F80A002010B5FCF7DC
:103AB0007FFB044A1188491C1180BDE81040FCF7C7
:103AC0007FBB00002800002070B50F2801D91F48D7
:103AD00070BD1F4DC0EBC00000EB4000E96801EB7A
:103AE0008004FCF765FB0646A088C10702D0174C8E
:103AF000E41C03E0810706D4144CA41C3046FCF7F8
:103B00005FFB204670BD20F0020042F22A41A080F7
:103B1000084216D140F00400A080E18804F128009A
:103B200001F068F8E86930B13046FCF749FBFFF76F
:103B300059FB002070BD01F0A1F80549203128385B
:103B400048603046FCF73CFBF3E700000702000248
:103B5000280000202DE9F041284D0646686986427C
:103B600002D12748BDE8F081A869864202D12448E5
:103B70000D30F7E72869864202D321480D38F1E776
:103B8000C6EBC600E96800EB400001EB8004FCF7DF
:103B90000FFB0746A088C10702D0194C0A3C09E078
:103BA000810702D5164C0C3C04E0C10607D52988D4
:103BB00029B1144C3846FCF703FB2046D2E74007F6
:103BC00007D504F1280000F0F9FFA08820F00400D8
:103BD000A080A08840F00200A08008482030006843
:103BE0000069B042384604D1FCF7EAFAFFF7FAFA66
:103BF00001E0FCF7E5FA0020B4E70000280000200F
:103C0000140200021502000310B5FCF7D1FA0949AD
:103C10000A8822B1521E1204120C0A8003D0BDE899
:103C20001040FCF7CDBAFCF7CBFABDE81040FFF727
:103C3000D9BA00002800002070B5194CA4F1200268
:103C4000206812690169914201D3164870BD00795C
:103C5000400701D4002070BDFCF7AAFA0546206891
:103C6000C08800F0F9FF012813D920682830FEF73A
:103C7000FAFE2068818841F0040181802068C188B3
:103C8000283000F0B7FF2846FCF79AFAFFF7AAFAA7
:103C9000E0E72846FCF794FA0248093070BD0000BE
:103CA00048000020070200020149D1E900017047E5
:103CB0008000002070B5174886B0816941F004018A
:103CC0008161816901F004010491816941F0080179
:103CD00081618069104E00F00800049000222021CC
:103CE0003046FDF71DFF0D480124CDE900400225B7
:103CF000694602950A48FDF71FFE2020CDE9000421
:103D00000020CDE9020569463046FDF715FE06B0F4
:103D100070BD000000100240000C014000001110B6
:103D2000000801400D4810B50B4901604FF4E13126
:103D30004160002181600C22C160C0E904128161F0
:103D4000C161FEF7E3FA002805D0BDE81040482124
:103D500003A000F07CBA10BD00380140B40600207A
:103D60002E2E2F5372632F75736172742E630000B1
:103D7000FEE770470907090E002806DA00F00F0079
:103D800000F1E02080F8141D704700F1E02080F879
:103D900000147047704700000648006808B101F041
:103DA00047BE0548D0E90012491C42F10002C0E9B3
:103DB00000127047700000208000002030B58FB0E6
:103DC00001210804CDE90010002402940225049189
:103DD000CDE907504FF4E01009906846FEF76AF805
:103DE00000B1FEE70F20CDE90A054FF48060CDE970
:103DF0000C4002210AA80E94FDF756FF00B1FEE721
:103E0000FDF7FCFF4FF47A71B0FBF1F0FEF7E0F93B
:103E10000420FEF7D1F900221146501EFDF712FFD3
:103E20000FB030BD0D48016841F0010101604168EB
:103E30000B4A1140416001680A4A11400160016863
:103E400021F480210160416821F4FE0141604FF4BA
:103E50001F0181600449C0030860704700100240E0
:103E60000000FFF8FFFFF6FE08ED00E070B5084C1B
:103E70002068401C2060FFF717FF054605A0216859
:103E800000F0E6F92946BDE8704008A000F0E0B96E
:103E90000C010020675F74696D6572636F756E74E5
:103EA000313D2564202E0D0A000000007469636B0B
:103EB0005F6C617374313D2564202E0D0A00000093
:103EC00010B5FFF7F1FE04460B484168491C4160FC
:103ED0000AA000F0BDF921460EA000F0B9F90021BA
:103EE0000620FEF789FC002804D0BDE810400EA093
:103EF00000F0AEB910BD00000C010020675F7469CE
:103F00006D6572636F756E74323D2564202E0D0AE7
:103F1000000000007469636B5F6C617374323D254F
:103F200064202E0D0A00000053657420496E7370E2
:103F30006563742053746174757320457272202E0A
:103F40000D0A000010B5406A0021C185C184FEF74A
:103F500053F910BD0168CA6822F49072CA60016802
:103F60004A6922F001024A61202180F83A10704724
:103F700010B590F83A10222901D0022010BD8168B6
:103F8000B1F5805F11D00169002901681FD049682F
:103F900001F07F03816A4A1C82620B70C18D491E49
:103FA0000904090CC18518D02BE00269816A002A36
:103FB0000268526805D0D2B20A80816A491C8162C7
:103FC000ECE7C2F308020A80816A891CF7E74A68B5
:103FD000816A4B1C83620A70E0E70168CA6822F0BC
:103FE0002002CA600168CA6822F48072CA6001684F
:103FF0004A6922F001024A61202180F83A10FEF756
:10400000EBF9002010BD00002DE9F04104460068E6
:104010000169E26821F44051114301612169A068FE
:104020000843616908432168CA6841F20C639A43F6
:104030000243CA6020684169A26921F440711143BA
:1040400041614C4920686425322688423CD1FDF705
:10405000EBFE00EBC00101EB001061688900B0FBD2
:10406000F1F7FDF7E1FE00EBC00101EB0010616824
:10407000B0468900B0FBF1F0B0FBF5F06FF018012D
:10408000484307EB800106EB0110B0FBF5F000F0B0
:10409000F006FDF7C9FE00EBC00101EB00106168FE
:1040A0008900B0FBF1F0B0FBF5F006EB0016FDF770
:1040B000BBFE00EBC00101EB001061688900B0FBA2
:1040C000F1F7FDF7B1FE3BE0FDF79EFE00EBC0010E
:1040D00001EB001061688900B0FBF1F7FDF794FE79
:1040E00000EBC00101EB00106168B0468900B0FB35
:1040F000F1F0B0FBF5F06FF01801484307EB8001D9
:1041000006EB0110B0FBF5F000F0F006FDF77CFEC9
:1041100000EBC00101EB001061688900B0FBF1F019
:10412000B0FBF5F006EB0016FDF76EFE00EBC001EC
:1041300001EB001061688900B0FBF1F7FDF764FE48
:1041400000EBC00101EB001061688900B0FBF1F0E9
:10415000B0FBF5F06FF01801484307EB800108EB66
:104160000110B0FBF5F0216800F00F0030448860CA
:10417000BDE8F0810038014090F83910212901D0C4
:10418000022070478168B1F5805F016A0BD04A1C3C
:104190000262026809785160C18C491E0904090C49
:1041A000C1840ED017E009880268C1F3080151608C
:1041B00001690029016A02D0491C0162ECE7891CEF
:1041C000FBE70168CA6822F08002CA600068C16823
:1041D00041F04001C160002070472DE9F041984650
:1041E00017460E460446069D1DE0681C1BD02DB1E7
:1041F000FDF79CFCA0EB0800A84214D92068C16818
:1042000021F4D071C1602068416921F00101416150
:10421000202084F8390084F83A00002084F838001F
:104220000320BDE8F0812068006836EA000004D071
:104230000020B842D9D00020F3E70120F9E70000C0
:104240000148FDF7DBBF0000B4060020FEE7FEE7F3
:104250000FB4054B10B503A9044A029800F018F8F2
:1042600010BC5DF814FB0000F5460008CC010020EE
:1042700002E008C8121F08C1002AFAD1704770472F
:10428000002001E001C1121F002AFBD1704700008D
:104290002DE9FF4F8DB00F460546002606E0252884
:1042A0000BD0DDE90F1290476D1C761C2878002892
:1042B000F5D111B03046BDE8F08F0024A246A146EA
:1042C0000122EC4900E0044315F8013F203B02FACB
:1042D00003F00842F7D128782A2810D06FF02F0277
:1042E0002878A0F13001092914D80AEB8A0102EBE1
:1042F000410144F0020400EB010A6D1CF0E701CF1C
:104300005FEA000A03D544F40054CAF1000A44F0FD
:1043100002046D1C28782E2817D115F8010F44F0DF
:1043200004042A280ED06FF02F022878A0F1300163
:1043300009290AD809EB890102EB410100EB0109C7
:104340006D1CF2E757F8049B6D1C28786C280FD081
:1043500006DC4C2817D068280DD06A2814D104E058
:10436000742810D07A280FD10DE044F400140AE02C
:1043700044F4801401E044F440146978814202D18D
:1043800004F580146D1C6D1C2A786E2A1FD00CDC7D
:10439000632A31D004DC002A8BD0582A11D1A3E043
:1043A000642A68D0692A0CD165E0732A2ED004DC17
:1043B0006F2A73D0702A04D19BE0752A6FD0782AB7
:1043C0006ED01046DDE90F129047761C50E1C4F321
:1043D0000250022806D0032809D0042801CF09D0B2
:1043E000066045E101CFF117C0E9006140E101CF6E
:1043F00006803DE106703BE117F8040B8DF80000E4
:1044000000208DF80100EB46012003E057F804BBC3
:104410004FF0FF3061074FF0000102D40DE008F1CA
:104420000101884649450FDA8045F8DB1BF8081082
:104430000029F4D108E008F1010188468142FADB45
:104440001BF808100029F6D1DDE90F23AAEB0800BC
:104450008146214600F036F9304400EB080604E0BE
:10446000DDE90F121BF8010B9047B8F10108F7D2F4
:1044700021464846F7E00A21C4F302534FF0000BEF
:104480000891022B04D001CFC117032B09D00AE0F9
:10449000FF1D27F00707F7E8020108E032E01FE000
:1044A00020E000B2C117042B01D140B2C117031E96
:1044B00071F1000307DA4FF0000CD0EB0C006CEB4D
:1044C00001012D2302E0230504D52B238DF8243090
:1044D000012303E0E30701D02023F7E7984658E0E3
:1044E0000A2110E010210EE010204FF0000B089080
:1044F0000CE010214FF0000B44F004044FF00809C9
:10450000089103E008214FF0000B0891C4F3025317
:10451000022B04D001CF0021032B06D006E0FF1DA3
:1045200027F00707F7E8020103E080B2042B00D16F
:10453000C0B24FF0000823072BD5702A07D0DDF852
:1045400020C08CF0100C5CEA0B0C05D00EE0402370
:104550008DF82430012308E050EA010306D030230F
:104560008DF824308DF8252002239846DDF820C0F0
:104570008CF0080C5CEA0B0C0BD150EA010301D162
:10458000630706D530238DF824304FF00108A9F1D8
:104590000109582A04D038A20B9208AA0A920BE00B
:1045A0003AA2F9E75B46089AFBF744FE0B9B9B5C3B
:1045B0000A9A521E0A92137050EA0102F2D10A9826
:1045C000ADEB000000F1200B600702D524F480342D
:1045D00001E04FF00109D94502DDA9EB0B0000E035
:1045E000002000EB0B0141440890AAEB010AE00314
:1045F00006D4DDE90F232146504600F063F8064457
:104600004FF0000908E009A911F80900DDE90F12CF
:10461000904709F10109761CC145F4DBE0030CD594
:10462000DDE90F232146504600F04CF8064404E033
:10463000DDE90F1230209047761C0899481E08903B
:104640000029F5DC08E00A980A990078491C0A91CB
:10465000DDE90F129047761CBBF10001ABF1010BB5
:10466000F1DC21465046DDE90F2300F019F806443D
:104670006D1C1BE6092801003031323334353637E2
:10468000383961626364656600000000303132339E
:10469000343536373839414243444546000000003E
:1046A0002DE9F041044600251E461746880404D42F
:1046B00005E039462020B0476D1C641EF9D5284618
:1046C000BDE8F0812DE9F041044600251E469046E4
:1046D000C80301D5302700E02027880404D505E071
:1046E00041463846B0476D1C641EF9D52846BDE8E2
:1046F000F081000013B54FF6FF73012269460248AE
:10470000FDF76BFE00981CBDB406002010B5FDF748
:1047100013FAFFF753FBFFF7CDFAFFF703FB002275
:1047200002210620FDF78EFA0620FDF77FFAFEF73C
:10473000FFF808B1012010BDFEF79CF8FEF7BAFEA5
:10474000FEE710B586B0044614216846FBF7CCFDA1
:104750006946204600F0B2F906B010BD4A0900EBE8
:1047600082020068121D884206D901F01F03012150
:104770001068994088431060704730B502C81F31F7
:104780004B0900210A4614E00468641C0FD0046839
:10479000E34301E05B08491C002BFBD14B1E0125C4
:1047A0009D402C43046001EB4210401E30BD001DB3
:1047B000521C9A42E8D34FF0FF3030BD02688A4263
:1047C00001D8002070474A0900EB820001F01F0267
:1047D0004068012191400840F4D00120704770B535
:1047E000054601600C4601F11F00C108281DFBF7BA
:1047F0007BFDE00608D004F01F014FF0FF30884039
:10480000610905EB8101486070BD00002DE9F041B0
:1048100000240D462746061E5ED0FBF7C9FC8046E5
:10482000ED1C25F00305706810E041684A000CD4C7
:1048300021F04041A94208D324B1626822F04042ED
:104840008A4202D90446A94221D000680028ECD14E
:10485000ECB3606820F04040401B082817D962196B
:1048600052F80C0F20F0804042F804096168491B9F
:10487000083961F31D00C2E900402146304600F0CE
:1048800012F928B30260606865F31D00606054F897
:10489000040F20F0004040F0804001C41448274637
:1048A0008168294408318160C268914200D9C160A1
:1048B0000168491C01607068406820F04040B0F514
:1048C000806F02D23046FFF73CFF404601E005E032
:1048D0000CE0FBF775FC3846BDE8F08105A0FFF75A
:1048E000B7FC294605A0FFF7B3FCE4E77260CAE70E
:1048F000B80000205B4552525D200000746865726C
:10490000652773206E6F7420656E6F7567682077FA
:10491000686F6C6520746F20616C6C6F6320257804
:10492000204279746573210A0000000070B51446B6
:1049300028B121B1042C02D3651E2C4201D00020E5
:1049400070BD2144091FFFF761FF0028F8D001194D
:10495000491EA9438842F3D0081A40F0004041F8AC
:10496000040C084670BD00002DE9F04101260C46FC
:10497000050018D0BCB154F8040C002802DA20F06D
:1049800000400C1A2868A04203D868680830A0428A
:104990000BD22EA0FFF75CFC21462EA0FFF758FC9F
:1049A0000020BDE8F0810120FBE7FBF701FCA4F14A
:1049B00008020746506840000ED5286890420DD086
:1049C0001168814208D368680830814204D82846BB
:1049D00000F069F8904201D0002631E05068224B87
:1049E00020F0804020F040415060986801F10804B8
:1049F000844204D8401A0838986000E002461068E3
:104A000068B141684900F9D509E05468214408318A
:104A100061F31D0454606968814200D16A601146E7
:104A2000284600F040F810B141684C00EDD5114621
:104A3000284600F038F800B102605868401C586001
:104A40003846FBF7BDFB3046ABE700005B455252F2
:104A50005D20000030782578206F7574206F662007
:104A600072616E6765210A00B800002070B50E46BD
:104A70000446050001D0582E01D8002070BD204604
:104A8000FBF732FC50342C60C5E901466068583EA3
:104A900020F08040606000202060606866F31D00A8
:104AA0006060012070BD4068884201D100207047DD
:104AB000486820F0404008440830704730B5002274
:104AC00078B171B1436807E05C68650003D524F0F4
:104AD0004044224408321B68002BF5D1836893427E
:104AE00001D2012030BD4A6080680860801A886069
:104AF00003480268CA6040680861002030BD0000B9
:104B0000B8000020FEE7000000B587B01821684615
:104B1000FBF7EAFB074800904FF4A060039006A063
:104B200004901F20ADF8040069460648FEF70CFE0D
:104B300007B000BD054B000849646C65436F7265A2
:104B4000303030003C000020EFF30580704700005B
:104B500002480349091AFDF7BDBF0000F80A00200A
:104B6000000001202DE9F04111484FF4B47140607C
:104B7000006010480068FDF783FF0D4D2D1F286071
:104B800098B1002426462F1D296804EB440001EB50
:104B9000C0014C6001F8086B3868FDF748FF641CE1
:104BA0000F2CF1D30020BDE8F0810348FBE70000A3
:104BB0009800002000000020001D0002D0E9001233
:104BC0001160D0E900124A6000214160016030F8B4
:104BD000221C0748426802EBC1025368934205D188
:104BE0004FF00042CA4001689143016070470000E5
:104BF000040000200A4B10B55A6802EBC102546849
:104C0000944205D14FF00044CC4019680C431C601D
:104C100011684A68C0E900124A681060486010BD17
:104C20000400002010B50A4800244FF48071006889
:104C3000FDF726FF07490028486007D0486800EBC9
:104C4000C400641C40600060202CF7D310BD00003D
:104C500000000020040000200749034600204A68A5
:104C600002EBC30102EBC302496801E04968401C42
:104C70008A42FBD17047000004000020054801680B
:104C800031B14068B1FA81F100EBC1004068704772
:104C900000207047040000202DE9F0411E46044624
:104CA000134611F003004FF000050BD0012812D07D
:104CB000032817D022A0FFF7CBFABDE8F04122A0CD
:104CC000FFF7C6BAA089E788421CBA4201D1A58184
:104CD00010E0A2810EE0A08900B9E088401EA0810A
:104CE00080B207E0E089E788421CBA4201D1E58141
:104CF00000E0E2812289256800FB025548074FEA5F
:104D0000C17007D518B118682860BDE8F08128681F
:104D10001860FAE750B1194628463268FBF7CBFA1B
:104D200020892D1F284431680160EEE7281F1044B8
:104D30002946046818462246FBF7BDFA3460E4E7CA
:104D40005B4552525D200000696E76616C6964209B
:104D50007175657565206F70657261746520747911
:104D60007065210A0000000070B513484FF4DC7430
:104D700021460068FDF784FE104D2860D0B1214621
:104D8000FBF7B2FA281D0024406000604FEA0006DD
:104D900004EB4400296800EBC40001EB80014C8166
:104DA0001C313068FDF74AFE641CA4B20A2CEFD314
:104DB000002070BD024870BD00000020A00000204F
:104DC000010600022DE9FF5F9A460F4604460025C2
:104DD00001F00106DDF838B0FBF7EAF94F498146EA
:104DE00004EB4400096800EBC40001EB8004A088D8
:104DF00050B1F8072089DAF80010A0F1040006D0BD
:104E0000814209D9464D83E0454D0B3D80E081420A
:104E100002D2434D0A357BE004EB4600018A91B192
:104E2000491E0182534639462046029AFFF734FF55
:104E3000002E37D04FF0000004EBC000816934D160
:104E40004FF0010032E0BBF1000F05D0354800887B
:104E500050B1334D0F3D5BE0F80702D0304D6D1C73
:104E600056E02F4D083553E02F485A464FF4005175
:104E7000D0F8008004EBC600143000F093FD4846E3
:104E8000FBF79EF9FEF7AEF9FBF792F98146B8F809
:104E900004004106C6D5224D20F04001A8F80410B8
:104EA0000E3D35E04FF00100C6E7002004EBC000E6
:104EB0001430814215D096B15FF0000004EBC000C1
:104EC0004FF400518069283800F092FD4846FBF706
:104ED00077F9FEF787F9002004B0BDE8F09F0120C4
:104EE000ECE7002E0CD000BF4FF0000004EB4000B8
:104EF000008A00F1010080B205D14FF0010104E009
:104F00004FF00100F2E74FF0000104EB410108828D
:104F10004846FBF755F92846DEE70000A0000020D0
:104F200015060002280000204800002010B50A28BD
:104F300001D30A4810BD49B142B1106848B15BB114
:104F4000FFF702FE40B105480A3010BD0348401C7F
:104F500010BD0248801C10BD002010BD0E060002CE
:104F600010B50A2801D30A4810BD41B1106848B1F4
:104F70005BB1FFF7E9FD40B10548401F10BD044893
:104F8000001D10BD0248401D10BD002010BD0000D6
:104F90000E060002FBF717B92DE9F84315000E467F
:104FA000074606D01B4C4FF00008B74205D91A4DF2
:104FB0000FE01948801FBDE8F883FBF7F9F8174A9E
:104FC0000146506890420ED10846FBF7F9F8124DA1
:104FD0006D1F214600232A4611A0CDF80080FDF761
:104FE0006FFA2846E7E7D0E900231A60D0E90023EA
:104FF000536020F8067C012220F8082D00F10802F9
:105000008680C2608260C08828600846FBF7D8F8B6
:105010000020D0E7F8C3B2A108070002B0000020CA
:105020006F735F756E73706563696669635F6669E8
:105030006C6500002DE9F04110484FF4A07140600C
:1050400000600F480068FDF71BFD0C4D2D1F286008
:1050500090B1002426462F1D286800EB0411CC8057
:1050600021F8086B3868FDF7F0FC641CA4B2142C1E
:10507000F2D30020BDE8F0810248FBE7B000002039
:10508000000000200007000210B504468068FFF70A
:1050900074FB002801DA002010BDD4E9001201FBE6
:1050A000002010BD10B503464068081A1968B0FB0F
:1050B000F1F4B0FBF1F201FB120068B998680168E5
:1050C000A14209D92146FFF779FB28B1214698680A
:1050D000FFF744FB012010BD002010BD2DE9F04179
:1050E0001F460B4607F11F01042404EBD1018E1863
:1050F000511E9D18761E6D1E8E438D4305FB076164
:105100000C31FFF783FB040008D004F10C00811977
:105110002560C4E901103946FFF761FB2046BDE870
:10512000F0814DF6DE6220F8022B00F8021B002110
:1051300000F8011C70471030704770B50E46FFF73D
:10514000FAFF00240546802E26D805EB04100068DF
:10515000B0421ED3FBF72CF805EB04140646D4E945
:105160000101814211D2E06878B1FFF78DFF05009F
:1051700006D02168FFF7D5FF0546A068401CA06057
:105180003046FBF71DF8284670BD3046FBF718F88F
:1051900002E0641C042CD8D3002070BD2DE9F0413E
:1051A0000C46FFF7C8FF074634F8040D0026A0F5AB
:1051B0005E413546DE391ED194F8020007EB051139
:1051C0000968884214D8FAF7F3FF07EB0515804603
:1051D0002146E868FFF766FF012803D1A868012689
:1051E000401EA8604046FAF7EBFF3046BDE8F0816C
:1051F0006D1C042DE2D30020F8E700002DE9F05FDC
:105200008346FFF798FF002407462646A1464FF045
:1052100010084FF4007A00BF08FA04F1BAFBF1F36A
:1052200007EB041585E80A02E86808B1761C05E07A
:1052300004225846091DFFF751FFE860641C042C46
:10524000EAD316B10020BDE8F09F0120FBE7000083
:10525000F8B540211A48FBF747F81A4D1A480027BD
:105260004FF4E071AF610E460068FDF709FC0400E1
:105270001CD03146FBF738F82C616C612781204641
:105280001C340121218104602046491C89B21C3450
:105290001029F7D308200B4A002300900C3210216C
:1052A0001846FDF7A3FE20B10848F8BD0748001FC7
:1052B000F8BD00F0EFF80028FAD00448401CF8BD13
:1052C000D00100200C000020000000200B03000291
:1052D0002DE9FC4F0023591E019100910169C16025
:1052E000017A5B4C01F00F065A4D54F826104FF02E
:1052F000030B4FF01009AD694A461F46DC46BBEB75
:10530000517F68D141F0004144F8261021F07F4AD6
:105310000021A6465EF821C03CF07F442ED0B14269
:105320002CD0BBEB9C7F29D1D446544506D3B4FB8B
:10533000FCF80AFB184CBCF1000F0AD0D4465445C7
:105340001CD2BCFBF4F804FB18ACBCF1000F0BD072
:1053500014E0B4FBFAF8DDF804C0E0450ED2B4FB6B
:10536000FAF48946019409E0BAFBF4F8DDF800C0CC
:10537000E04503D2BAFBF4F200920A46491C89B216
:105380001029C7D33349B9F1100F09691AD0C9EBF5
:10539000C9042A4601EB840106E0D4680E8927443B
:1053A0001489B44203D01268002AF6D134E062B303
:1053B0001169CC1B0169B4FBF1F201FB1242891A9D
:1053C000C16029E0102A27D00023C2EBC202C360CB
:1053D00001EB82031EE00222B2EB517F1CD141F0AF
:1053E000004144F82610294662460CE00E69076920
:1053F000BE4207D10E7A06F00F0654F82660B2EBD3
:10540000967F03D009680029F0D105E021B1002280
:105410000B46C26019680BE0294607E0CA68C468F9
:10542000A24205D8A21A0B46C26009680029F5D12C
:10543000016019B1CA68C468121BCA6023B1186040
:1054400002210171BDE8FC8F02498861F8E7000084
:10545000D00100200C0000200EB508200C4C4FF0AD
:10546000FF3500902B466A4601A9E068FDF77FFEF4
:105470000028F7D100980828F4D101980028F1D02D
:10548000FEF712FCDDE901108847FEF70DFCE9E7A5
:105490000C00002000B587B018216846FAF724FFF9
:1054A000074800904FF43470039006A00490002049
:1054B000ADF8040069460648FEF746F907B000BD9E
:1054C000595400085377745F5461736B00000000F7
:1054D000400000207CB5184D26E02068A861A06936
:1054E000009060690190002308226946E868FDF792
:1054F00065FE607920B1012810D0022814D111E096
:10550000204600F01BF820894FF6E071884201D256
:10551000103001E000F00F00208105E02046FFF789
:10552000D7FE01E001202071AC69002C02D0E068B8
:105530000028D2D07CBD00000C00002006494A693A
:105540000260486100210171007A044A00F00F00F6
:1055500042F82010704700000C000020D00100200D
:10556000054810B5806928B1C168491EC16001D1E4
:10557000FFF7B0FF002010BD0C00002070B5124BEB
:105580000022996900291BD001E00A46096881427E
:10559000FBD10C681CB1E568CE683544E56082B18A
:1055A0000B68136000220A6001220A71007A00F081
:1055B0000F01064850F8212022F0004240F8212037
:1055C00070BD0A689A61EDE70C000020D001002050
:1055D000F0B4024611F01F034FEA511000D1401EF3
:1055E000916B1B4C01F0784101432079184400F085
:1055F0001F0060F3DF619163216801EBC00302F1DA
:1056000030015868984201D118461DE03038956B3A
:10561000876B25F0784427F07846A6420AD8A41B69
:1056200005F078452C439463446BA4F130009C4210
:10563000EDD108E027F0784325F078429A1A07F078
:1056400078431A4382633030F0BCFDF716BA00008D
:105650006800002070B5094DC0EBC00000EB4000B1
:10566000E96801EB80046169206A8847002028808E
:105670002069BDE87040FEF77DB9000028000020D9
:1056800072B6FEE72DE9F041304D5420304F2C69C1
:10569000641C444321463868FDF7F2F9DFF8B48012
:1056A000E860E8B32146FAF71FFE05F12800002460
:1056B0004060006008304060006008305FF0010624
:1056C00040600060C4EBC400E96800EB400001EBFF
:1056D00080011E488E800C6130302831FDF7CDF9F5
:1056E000641C0F2CEED900266E622869E968C0EBB5
:1056F000C00000EB400001EB800114482030016045
:105700000C6102681121918000682021C180FFF79F
:1057100089FA4FF480710D463868FDF7B1F900E061
:1057200012E0040010D02946FAF7DEFD07484030A9
:1057300004608680002064602460401C08342028B7
:10574000F9D30020BDE8F0814046FBE728000020A7
:10575000000000200002000310B54FF4AB710648B2
:10576000FAF7C2FD04490A20487005480349416020
:105770000021816010BD000010020020695800085F
:105780002800002070B5044600790D4640070FD56B
:1057900004F128000646FFF711FAA088E58040F0E2
:1057A0000400A08029463046BDE87040FFF722BAC9
:1057B000E18070BD2DE9F0412A4800270179491C9C
:1057C00001F01F018180006800EBC1056C68AC42EC
:1057D00045D0303C04F13000A84206D0A06BA6882A
:1057E000400108D0A06B401EA063002F37D0BDE859
:1057F000F041FDF7F7BC04F13000FDF734F9300754
:105800000BD5A08820F00800A08004F12800FDF747
:105810002AF90020A061E06113E0700503D5A0889B
:1058200020F480600CE0B00407D504F12800FDF7F7
:105830001AF9A08820F4005002E0A08820F020008F
:10584000A080B00709D4A08840F00400A080E188BF
:1058500004F12800FFF7CEF901276C68B9E7BDE82D
:10586000F08100006800002010B52A4C2068C06854
:105870000068B0F1CC3F08D027A0FEF7E9FC206813
:105880000269416A26A0FEF7E3FC6068C26801680D
:10589000914203D980681044884211D21EA0FEF7BD
:1058A000D7FC60680269416A27A0FEF7D1FC1AA004
:1058B000FEF7CEFC6068C26801682CA0FEF7C8FC49
:1058C0006068374C018A227804EB42025180416AB9
:1058D0002078202204EB40101630FAF7ECFC2178F7
:1058E000002004EB411181F835002178491CC9B230
:1058F00021700A2904D12070607840F08000607027
:10590000044820388068002802D0BDE810400047D5
:1059100010BD0000480000205B4552525D20000091
:1059200043555252454E54207461736B2049443A9A
:105930002025733A256420737461636B206F76654C
:1059400072666C6F77210A004849474845535420D6
:105950007461736B2049443A2025733A25642053BF
:1059600050206572726F72210A0000004849474852
:10597000455354207461736B20537461636B506F93
:10598000696E7465723A203078257820546F704FB4
:1059900066537461636B3A20307825780A00000002
:1059A000100200202DE9F0418046104816460F46AF
:1059B000046804F128000546FFF700F9A08829468D
:1059C00020F004003843A0804046FDF756F8701CD4
:1059D00009D0A088314640F04000A0802046BDE8B4
:1059E000F041FFF7F5BDBDE8F08100004800002060
:1059F00070B5044628300D460646FDF734F8A088F9
:105A0000A843A080400606D5204600F05DF8A08897
:105A100020F04000A080A088810708D440F0040056
:105A2000A080E1883046BDE87040FFF7E3B870BD64
:105A3000084810B5D0E90221521C41F10001C0E92B
:105A4000022100F05BF8FFF7B5FEBDE81040FFF75C
:105A500087BD000078000020154810B5006818B117
:105A60004FF47A71884201D2124810BDB0FBF1F2B6
:105A7000114B124CB0FBF1F01A600022C4E9002275
:105A80000122401EB0F1807F02D30A48801C10BD65
:105A90004FF0E02148610A4BF02083F8140D0020FC
:105AA00088610720086107480260002010BD0000DF
:105AB000C8010020000400028800002080000020AF
:105AC0000FE000E07000002030B40B4B826B1B68CD
:105AD000D10E03EBC103416B994209D08B6822F0D0
